:020000040800F2
:1000000000000220B1130008FD1100080B120008C7
:1000100011120008171200081D120008000000004D
:100020000000000000000000000000002312000893
:1000300031120008000000003F1200084D120008B5
:10004000011400080114000801140008011400083C
:10005000011400080114000801140008011400082C
:10006000011400080114000801140008011400081C
:10007000011400080114000801140008011400080C
:1000800001140008011400080114000801140008FC
:1000900001140008011400080114000801140008EC
:1000A00001140008011400080114000801140008DC
:1000B00039050008011400080114000801140008A3
:1000C00001140008011400080114000801140008BC
:1000D00001140008011400080114000801140008AC
:1000E000011400080114000801140008011400089C
:1000F000011400080114000801140008011400088C
:10010000011400080114000801140008011400087B
:10011000011400080114000801140008011400086B
:10012000011400080114000801140008011400085B
:10013000011400080114000801140008011400084B
:10014000011400080114000801140008011400083B
:10015000F505000801140008011400080114000846
:10016000011400080114000801140008011400081B
:10017000011400080114000801140008011400080B
:0801800001140008011400083D
:1001880010B5054C237833B9044B13B10448AFF3C9
:1001980000800123237010BD000000200000000033
:1001A8004C14000808B5034B1BB103490348AFF3CF
:1001B800008008BD00000000040000204C14000866
:1001C80080B582B000AF1B4B00221A80194B002269
:1001D8005A60184B00229A600023BB8017E0002366
:1001E800FB800DE0BA8813469B0013449B011A4418
:1001F800FB881344104A0021D154FB880133FB804B
:10020800FB88B3F5A07FEDD9BB880133BB80BB88E1
:10021800EF2BE4D900F05EF800F0B0F800F040F9F8
:1002280000F012F9054B1B68024A936000BF0837BB
:10023800BD4680BD1C0000202800002088640240C4
:1002480080B584B000AF0346FB710023BB8112E088
:100258000023FB8108E0FA79B989FB89184600F088
:1002680011F8FB890133FB81FB89B3F5A07FF2D339
:10027800BB890133BB81BB89EF2BE9D900BF10379C
:10028800BD4680BD80B483B000AF0346FB800B46FB
:10029800BB801346FB70FB88B3F5A07F01D3002316
:1002A800FB80BB88EF2B01D90023BB80BA8813469B
:1002B8009B0013449B011A44FB8813440449FA78B1
:1002C800CA5400BF0C37BD465DF8047B704700BFB9
:1002D8002800002080B582B000AF0121102000F076
:1002E800EDFC4FF47F433B6001233B710023BB715E
:1002F8000123FB7103237B713B4619461D4800F01F
:1003080005FC1C4B4FF47F425A830121022000F068
:10031800D5FC4FF400633B6002233B7103237B71E0
:100328000023BB710123FB713B461946124800F0BC
:10033800EDFB01220B21104800F076FC0121022080
:1003480000F0BCFC4FF480533B6001233B71002359
:10035800BB710123FB7103237B713B461946064899
:1003680000F0D4FB044B4FF480521A8300BF0837C7
:10037800BD4680BD001002400004024080B588B030
:1003880000AF0121012000F0D9FC0B23BB61002341
:10039800BB820023BB830023FB8207F114031946A9
:1003A800284800F0EBFC0121012000F0A7FC40F6F2
:1003B8006B23BB610023BB820023BB830023FB822A
:1003C80007F1140319464FF0804000F0D7FC602372
:1003D8003B8001237B804FF4D273BB600223BB8137
:1003E8003B4619464FF0804000F074FD08214FF05D
:1003F800804000F05DFE60233B8001237B804FF44A
:10040800A073BB600223BB813B4619464FF0804076
:1004180000F0E6FD08214FF0804000F065FE012164
:10042800084800F017FD01214FF0804000F012FD50
:1004380001214FF0804000F02DFD00BF2037BD4660
:1004480080BD00BF0000014080B582B000AF01222E
:100458001021124800F09AFA44233B7100237B7163
:100468000023BB710123FB713B1D184600F0E4F823
:10047800012208214FF0804000F054FE1C233B71FC
:1004880000237B710023BB710123FB713B1D1846C0
:1004980000F0D2F800BF0837BD4680BD886402402E
:1004A80080B590B000AF01214FF4800000F006FC49
:1004B80000211B4800F04EFA194800F01FF94FF0D0
:1004C80040637B60174BBB60174BFB6040233B616D
:1004D80040F241137B610023BB614FF48063FB61F1
:1004E80000233B6200237B620023BB624FF440334E
:1004F800FB6200233B6301237B630023BB63002370
:10050800FB633B1D1946064800F0CCF901224FF465
:100518008071064800F03BFE00BF4037BD4680BDF5
:1005280088640240151002402800002000000140A5
:1005380080B500AF08214FF0804000F017FE264B31
:100548001B8801339AB2244B1A80234B1B88B3F5BE
:10055800037F05D9204B00221A80204A1E4B5A607F
:100568001D4B1B88012B04D81D4B4FF480525A8316
:1005780003E01B4B4FF480521A83174B1B88232B25
:1005880027D9154B1B8840F20222934221D8154ADD
:10059800114B9B681360134A0F4B5B68D360124A78
:1005A800114B1B889BB243F001039BB213800D4A89
:1005B8000C4B1B6843F001031360074B1B8803F0C7
:1005C8000103002B05D0044B5B6803F24113024A78
:1005D800536000BF80BD00BF1C0000202800002021
:1005E80000040240886402400000014080B500AF6A
:1005F8000D490E4800F004FA0346002B12D00A49B0
:100608000A4800F055FA0A4A094B1B889BB223F0A6
:1006180001039BB21380054B00221A60054B4FF46F
:100628007F425A8300BF80BD008800208864024052
:10063800000001400010024080B485B000AF78602F
:100648000023FB730023BB730F237B737B68DB786A
:10065800002B39D0274BDB68DB431B0ADBB203F0E6
:100668000703FB73FB7BC3F10403BB737A7BFB7B40
:1006780042FA03F37B737B685B781A46BB7B02FA0A
:1006880003F3FB737B689A787B7B1340DAB2FB7BBE
:100698001343FB73FB7B1B01FB73174A7B681B78B7
:1006A8001344FA7B83F80023134A7B681B785B09A1
:1006B800DBB218467B681B7803F01F03012101FA9F
:1006C80003F342F820300FE00B497B681B785B0985
:1006D800DBB218467B681B7803F01F0301229A409F
:1006E80000F1200341F8232000BF1437BD465DF810
:1006F800047B704700ED00E000E100E080B483B0C7
:1007080000AF78607B681B6823F001027B681A6081
:100718007B6800221A607B6800225A607B6800228E
:100728009A607B680022DA607B6800221A617B6825
:1007380021225A617B68464A934203D1454B3D22A8
:100748009A607EE07B68444A934204D1414B4FF45F
:1007580074629A6075E07B68404A934204D13D4BCD
:100768004FF474129A606CE07B683D4A934204D15E
:10077800384B4FF074629A6063E07B68394A934261
:1007880003D1344B384ADA605BE07B68374A9342DE
:1007980003D1304B364ADA6053E07B68354A9342DE
:1007A80003D12C4B344ADA604BE07B68334A9342DE
:1007B80004D1284B4FF03D52DA6042E07B68304A62
:1007C800934203D12F4B3D229A603AE07B682E4A30
:1007D800934204D12B4B4FF474629A6031E07B68EA
:1007E8002A4A934204D1274B4FF474129A6028E0A6
:1007F8007B68274A934204D1224B4FF074629A6077
:100808001FE07B68234A934203D11E4B164ADA60E5
:1008180017E07B68204A934203D11A4B144ADA60E6
:100828000FE07B681D4A934203D1164B124ADA60E7
:1008380007E07B681A4A934203D1124B4FF03D52AE
:10084800DA6000BF0C37BD465DF8047B704700BF17
:100858001060024000600240286002404060024090
:1008680058600240706002403D00002088600240ED
:10087800400F0020A060024000003D20B860024008
:100888001064024000640240286402404064024050
:10089800586402407064024088640240A0640240C8
:1008A800B864024080B485B000AF78603960002336
:1008B800FB607B681B68FB60FA68254B1340FB6094
:1008C8003B681A683B68DB681A433B685B691A43F4
:1008D8003B689B691A433B68DB691A433B681B6AA0
:1008E8001A433B685B6A1A433B689B6A1A433B6836
:1008F8005B6B1A433B689B6B1343FA681343FB60BB
:100908007B68FA681A607B685B69FB60FB6823F0A8
:100918000703FB603B68DA6A3B681B6B1343FA68A2
:100928001343FB607B68FA685A613B681A697B6805
:100938005A603B685A687B689A603B689A687B682B
:10094800DA6000BF1437BD465DF8047B704700BF0E
:100958003F801CF080B483B000AF78600B46FB701A
:10096800FB78002B06D07B681B6843F001027B688C
:100978001A6005E07B681B6823F001027B681A6037
:1009880000BF0C37BD465DF8047B704780B485B066
:1009980000AFF860B9601346FB71BB6803F08003D1
:1009A800002B0FD0FB79002B06D0FB685B6943F066
:1009B8008002FB685A6105E0FB685B6923F08002EE
:1009C800FB685A61BB68802B14D0FB79002B08D0D8
:1009D800FB681A68BB6803F01E031A43FB681A60B9
:1009E80008E0FB681A68BB6803F01E03DB431A4083
:1009F800FB681A6000BF1437BD465DF8047B70477A
:100A080080B487B000AF786039600023FB7500239D
:100A1800FB600023BB607B68224A934202D8224BCA
:100A28003B6101E0214B3B613B6823F0F02323F05D
:100A3800C313002B0AD03B68DB0A03F01E03FB60DC
:100A48007B681A68FB681340BB6004E07B685B69DD
:100A580003F08003BB603B6803F00053002B03D016
:100A68003B695B68FB6002E03B691B68FB60FB68F5
:100A780023F0F02323F08213FB60FA683B681340ED
:100A8800002B05D0BB68002B02D00123FB7501E0C9
:100A98000023FB75FB7D18461C37BD465DF8047BBB
:100AA800704700BF0F6402400060024000640240CB
:100AB80080B485B000AF786039607B68104A934293
:100AC80002D8104BFB6001E00F4BFB603B6803F062
:100AD8000053002B07D03B6823F0F02323F0821348
:100AE800FA68D36006E03B6823F0F02323F0821312
:100AF800FA68936000BF1437BD465DF8047B704701
:100B08000F640240006002400064024080B487B075
:100B180000AF7860396000237B6100233B610023CC
:100B2800FB6000237B6176E001227B6902FA03F314
:100B38003B613B681A683B691340FB60FA683B6994
:100B48009A4265D17B681A687B695B00032101FAC8
:100B580003F3DB431A407B681A607B681A683B68BA
:100B68001B7919467B695B0001FA03F31A437B681A
:100B78001A603B681B79012B03D03B681B79022B59
:100B88002ED17B689A687B695B00032101FA03F325
:100B9800DB431A407B689A607B689A683B685B799C
:100BA80019467B695B0001FA03F31A437B689A6074
:100BB8007B685A687B699BB2194601238B40DB43EB
:100BC8001A407B685A607B685B683A68927911467C
:100BD8007A6992B201FA02F292B21A437B685A60B9
:100BE8007B68DA687B699BB25B00032101FA03F337
:100BF800DB431A407B68DA607B68DA683B68DB793C
:100C080019467B695B0001FA03F31A437B68DA60D3
:100C18007B6901337B617B690F2B85D900BF1C374A
:100C2800BD465DF8047B704780B485B000AF78603E
:100C38000B467B8013467B700023FB600023BB6060
:100C48007A787B8803F007039B0002FA03F3FB60C2
:100C58007B88DB089BB218467B88DB089BB21A4668
:100C68007B68083253F822207B8803F007039B0037
:100C78000F2101FA03F3DB4302EA03017B6800F169
:100C8800080243F822107B88DB089BB21A467B686F
:100C9800083253F82220FB681343BB607B88DB08CB
:100CA8009BB21A467B680832B96843F8221000BF25
:100CB8001437BD465DF8047B7047000080B483B0EC
:100CC80000AF78600B46FB70FB78002B06D00A4912
:100CD800094B1A6B7B6813430B6306E00649064B06
:100CE8001A6B7B68DB4313400B6300BF0C37BD46B0
:100CF8005DF8047B704700BF0038024080B483B0C1
:100D080000AF78600B46FB70FB78002B06D00A49D1
:100D1800094B1A6C7B6813430B6406E00649064BC3
:100D28001A6C7B68DB4313400B6400BF0C37BD466D
:100D38005DF8047B704700BF0038024080B483B080
:100D480000AF78600B46FB70FB78002B06D00A4991
:100D5800094B5A6C7B6813434B6406E00649064B03
:100D68005A6C7B68DB4313404B6400BF0C37BD46AD
:100D78005DF8047B704700BF0038024080B485B03E
:100D880000AF786039600023FB817B681B88FB819A
:100D98007B68294A934213D07B68284A93420FD034
:100DA8007B68B3F1804F0BD07B68254A934207D00C
:100DB8007B68244A934203D07B68234A934208D134
:100DC800FB8923F07003FB813B685A88FB89134336
:100DD800FB817B681D4A93420CD07B681C4A934276
:100DE80008D0FB8923F44073FB813B681A89FB898F
:100DF8001343FB817B68FA891A803B685A687B68D1
:100E0800DA623B681A887B681A857B680A4A9342CB
:100E180003D07B68094A934204D13B689B7A9AB213
:100E28007B681A867B6801229A8200BF1437BD4608
:100E38005DF8047B704700BF0000014000040140DA
:100E48000004004000080040000C00400010004072
:100E58000014004080B483B000AF78600B46FB708C
:100E6800FB78002B08D07B681B889BB243F080037B
:100E78009AB27B681A8007E07B681B889BB223F0D4
:100E880080039AB27B681A8000BF0C37BD465DF8B4
:100E9800047B704780B483B000AF78600B46FB706A
:100EA800FB78002B08D07B681B889BB243F00103BA
:100EB8009AB27B681A8007E07B681B889BB223F094
:100EC80001039AB27B681A8000BF0C37BD465DF8F3
:100ED800047B704780B485B000AF78603960002328
:100EE8007B810023FB810023BB817B681B8C9BB229
:100EF80023F480739AB27B681A847B681B8CFB810D
:100F08007B689B88BB817B689B8B7B817B8923F07B
:100F180070037B817B8923F003037B813B681A88FC
:100F28007B8913437B81FB8923F40073FB813B6836
:100F38009B891B029AB2FB891343FB813B685B8840
:100F48001B029AB2FB891343FB817B68224A9342B6
:100F580003D07B68214A93422BD1FB8923F4006399
:100F6800FB813B68DB891B029AB2FB891343FB8137
:100F7800FB8923F48063FB813B689B881B029AB240
:100F8800FB891343FB81BB8923F48053BB81BB8955
:100F980023F40053BB813B681B8A1B019AB2BB89AF
:100FA8001343BB813B685B8A1B019AB2BB8913431D
:100FB800BB817B68BA899A807B687A899A833B6807
:100FC8009A687B68DA637B68FA891A8400BF1437E9
:100FD800BD465DF8047B70470000014000040140F5
:100FE80080B485B000AF786039600023BB810023EE
:100FF8007B810023FB817B681B8C9BB223F480538D
:101008009AB27B681A847B681B8C7B817B689B887F
:10101800FB817B689B8BBB81BB8923F4E043BB814D
:10102800BB8923F44073BB813B681B881B029AB2BF
:10103800BB891343BB817B8923F400537B813B68C5
:101048009B891B039AB27B8913437B813B685B882E
:101058001B039AB27B8913437B817B68124A9342B4
:1010680003D07B68114A93420AD1FB8923F4804359
:10107800FB813B681B8A9B019AB2FB891343FB8166
:101088007B68FA899A807B68BA899A833B689A68F0
:101098007B681A647B687A891A8400BF1437BD4656
:1010A8005DF8047B704700BF000001400004014068
:1010B80080B485B000AF78600B467B800023FB814D
:1010C8007B689B8BFB81FB8923F00803FB81FA89F2
:1010D8007B881343FB817B68FA899A8300BF1437A6
:1010E800BD465DF8047B704780B485B000AF78607A
:1010F8000B467B800023FB817B689B8BFB81FB89F4
:1011080023F40063FB817B881B029AB2FB8913439B
:10111800FB817B68FA899A8300BF1437BD465DF866
:10112800047B704780B483B000AF78600B467B8047
:1011380013467B707B78002B08D07B689B899AB21A
:101148007B8813439AB27B689A8109E07B689B8904
:101158009AB27B88DB439BB213409AB27B689A8130
:1011680000BF0C37BD465DF8047B704780B483B080
:1011780000AF78600B467B807B88DB439AB27B6844
:101188001A8200BF0C37BD465DF8047B704780B4F7
:1011980083B000AF78600B467B8013467B707B780A
:1011A800002B08D07B689B899AB27B8813439AB23C
:1011B8007B689A8109E07B689B899AB27B88DB43CC
:1011C8009BB213409AB27B689A8100BF0C37BD4628
:1011D8005DF8047B704780B500AF00F03BF8FEF780
:1011E800EFFF1F20FFF72CF80A220A210A20FFF739
:1011F80049F8FEE780B400AF00BFBD465DF8047B48
:10120800704780B400AFFEE780B400AFFEE780B45B
:1012180000AFFEE780B400AFFEE780B400AF00BFC8
:10122800BD465DF8047B704780B400AF00BFBD4683
:101238005DF8047B704780B400AF00BFBD465DF821
:10124800047B704780B400AF00BFBD465DF8047BE7
:101258007047000080B500AF124A124B1B6843F07C
:10126800010313600F4B00229A600E4A0D4B1B6856
:1012780023F0847323F4803313600A4B0A4A5A60BC
:10128800084A084B1B6823F480231360054B00228F
:10129800DA6000F00DF8054B4FF000629A6000BF6D
:1012A80080BD00BF003802401030002400ED00E08F
:1012B80080B483B000AF00237B6000233B60364AD4
:1012C800354B1B6843F480331360334B1B6803F4BE
:1012D80000333B607B6801337B603B68002B03D1A4
:1012E8007B68B3F5A06FF0D12B4B1B6803F4003378
:1012F800002B02D001233B6001E000233B603B68E8
:10130800012B42D1244A244B1B6C43F080531364B5
:10131800224A224B1B6843F4404313601E4A1E4B6B
:101328009B6893601C4A1C4B9B6843F40043936082
:10133800194A194B9B6843F4A0539360164B184AFB
:101348005A60154A144B1B6843F08073136000BF42
:10135800114B1B6803F00073002BF9D0114B40F2BE
:1013680005621A600C4A0C4B9B6823F003039360D8
:10137800094A094B9B6843F00203936000BF064B80
:101388009B6803F00C03082BF9D100BF0C37BD464E
:101398005DF8047B704700BF0038024000700040D1
:1013A80008544007003C0240DFF834D0002103E035
:1013B8000C4B5B58435004310B480C4B42189A4273
:1013C800F6D30B4A02E0002342F8043B094B9A4249
:1013D800F9D3FFF73FFF00F011F8FFF7FCFE704765
:1013E800000002206C14000800000020000000200B
:1013F80000000020182D0120FEE7000070B50D4EFA
:101408000D4CA41BA4100025A54209D10B4E0C4C71
:1014180000F018F8A41BA4100025A54205D170BD42
:1014280056F8253098470135EEE756F825309847A5
:101438000135F2E764140008641400086414000815
:1014480068140008F8B500BFF8BC08BC9E46704791
:0C145800F8B500BFF8BC08BC9E46704709
:04146400AD010008CE
:0414680089010008EE
:04000005080013B12B
:00000001FF
